:100000000C942A000C94910B0C94C40B0C94F70BD9
:100010000C9447000C9447000C94F5090C9447008D
:100020000C9447000C9447000C948F090C94C2095F
:100030000C9447000C9447000C9447000C94470024
:100040000C9449110C9447000C9447000C94470001
:100050000C94470011241FBECFE5D8E0DEBFCDBF12
:1000600011E0A8E6B1E001C01D92AE37B107E1F79B
:1000700011E0A0E6B0E0E6EEF1E302C005900D92DB
:10008000A836B107D9F70E942A170C94F1180C94DE
:100090000000EF92FF920F931F937B018C0120E0F1
:1000A00030E040E05FE40E94F50388238CF0C80153
:1000B000B70120E030E040E05FE40E94C1010E940F
:1000C00055049B01AC01205030404040504806C0D0
:1000D000C801B7010E9455049B01AC01B901CA01D6
:1000E0001F910F91FF90EF900895A0E0B0E0EBE733
:1000F000F0E00C943E18DC012B01FA019C91923047
:1001000008F439C1EB018881823008F433C194309E
:1001100069F4843009F02FC111969C91119789815F
:10012000981709F428C1A0E6B0E025C1843009F48D
:1001300021C18230A9F4923009F01DC19A01AD01AC
:1001400088E0EA010990AE01E90109929E0181501F
:10015000C1F7E201898111969C918923818308C1AD
:10016000923009F407C112962D903C901397EB0141
:100170008A819B811496AD90BD90CD90DC901797AD
:10018000EC80FD800E811F819101281B390BB90184
:1001900037FF04C066277727621B730B6032710537
:1001A0000CF061C0121613066CF537014801062EDB
:1001B00004C096948794779467940A94D2F721E0C8
:1001C00030E040E050E004C0220F331F441F551FB1
:1001D0006A95D2F721503040404050402E213F21B7
:1001E00040235123211531054105510521F021E01E
:1001F00030E040E050E079018A01E628F72808293C
:1002000019293CC0232BD1F1260E371E350146019A
:10021000062E04C096948794779467940A94D2F734
:1002200021E030E040E050E004C0220F331F441FC3
:10023000551F6A95D2F721503040404050402A2146
:100240003B214C215D21211531054105510521F04E
:1002500021E030E040E050E059016A01A628B728CB
:10026000C828D9280BC0821593052CF01C01AA249C
:10027000BB24650103C0EE24FF24870111969C91E5
:10028000D20111968C91981709F445C0992339F041
:10029000A80197012A193B094C095D0906C0A6016E
:1002A00095012E193F09400B510B57FD08C01182D3
:1002B0003382228224833583468357831DC081E0A5
:1002C00081833382228288279927DC01821B930B4A
:1002D000A40BB50B84839583A683B7830DC0220F2F
:1002E000331F441F551F24833583468357838281E0
:1002F000938101979383828324813581468157813D
:10030000DA01C9010197A109B1098F5F9F4FAF4F72
:10031000BF4328F30BC0918333822282EA0CFB1C7B
:100320000C1D1D1DE482F5820683178383E0808304
:10033000248135814681578157FF1AC0C901AA27F8
:1003400097FDA095BA2F81709070A070B0705695EF
:10035000479537952795822B932BA42BB52B848318
:100360009583A683B7838281938101969383828349
:10037000DF0101C0D201CD01CDB7DEB7E2E10C94BF
:100380005A18A0E2B0E0E7ECF1E00C944A18698357
:100390007A838B839C832D833E834F835887E9E048
:1003A000EE2EF12CEC0EFD1ECE010196B7010E943F
:1003B00046068E010F5E1F4FCE010596B8010E94C2
:1003C00046068A8991E089278A8BC701B801AE0168
:1003D000475E5F4F0E9475000E947105A096E6E09F
:1003E0000C946618A0E2B0E0E8EFF1E00C944A1833
:1003F00069837A838B839C832D833E834F835887C5
:10040000F9E0EF2EF12CEC0EFD1ECE010196B701A6
:100410000E9446068E010F5E1F4FCE010596B80161
:100420000E944606C701B801AE01475E5F4F0E94B9
:1004300075000E947105A096E6E00C946618A0E293
:10044000B0E0E5E2F2E00C943E1869837A838B8396
:100450009C832D833E834F835887CE010196BE0136
:10046000675F7F4F0E944606CE010596BE016F5E14
:100470007F4F0E9446069985923088F089898230A4
:10048000C8F0943019F4823051F404C0843029F457
:10049000923081F480E690E0C6C0923049F420E0CA
:1004A0009A858A89981321E02A87CE010996BBC0D4
:1004B000823049F420E09A858A89981321E02A8BBA
:1004C000CE014196B0C02D843E844F8458886D88FB
:1004D0007E888F88988CEE24FF248701AA24BB2471
:1004E000650140E050E060E070E0E0E0F0E0C10174
:1004F00081709070892BE9F0E60CF71C081D191D1E
:100500009A01AB012A0D3B1D4C1D5D1D80E090E062
:10051000A0E0B0E0E614F7040805190520F481E036
:1005200090E0A0E0B0E0BA01A901480F591F6A1F8E
:100530007B1FAA0CBB1CCC1CDD1C97FE08C081E0F5
:1005400090E0A0E0B0E0A82AB92ACA2ADB2A3196B6
:10055000E032F10549F0660C771C881C991C569412
:10056000479437942794C3CFFA85EA892B893C892D
:100570008B859C85280F391F2E5F3F4F17C0CA01FE
:1005800081709070892B61F016950795F794E79428
:1005900080E090E0A0E0B0E8E82AF92A0A2B1B2BC3
:1005A00076956795579547952F5F3F4F77FDE7CF36
:1005B0000CC0440F551F661F771F17FD4160EE0CDE
:1005C000FF1C001F111F21503040403090E05907A0
:1005D00090E0690790E4790760F32B8F3C8FDB0193
:1005E000CA018F779070A070B07080349105A1051A
:1005F000B10561F447FD0AC0E114F10401051105DC
:1006000029F0405C5F4F6F4F7F4F40781A8EFE1786
:1006100011F081E08A8F4D8F5E8F6F8F78A383E01A
:10062000898FCE0149960E947105A096E2E10C9453
:100630005A18A8E1B0E0EFE1F3E00C9446186983A2
:100640007A838B839C832D833E834F835887B9E0C5
:10065000EB2EF12CEC0EFD1ECE010196B7010E948F
:1006600046068E010F5E1F4FCE010596B8010E940F
:1006700046062985223008F47EC03989323010F4CC
:10068000B8017CC08A859A8989278A87243011F02D
:10069000223031F4231709F06EC060E670E06EC0BE
:1006A000343039F41D861E861F86188A1C861B86E8
:1006B00004C0323021F484E08987B7015FC02B8504
:1006C0003C858B899C89281B390B3C872B87ED84C3
:1006D000FE840F851889AD88BE88CF88D88CEA142F
:1006E000FB040C051D0540F4EE0CFF1C001F111F40
:1006F000215030403C872B8720E030E040E050E044
:1007000080E090E0A0E0B0E460E070E0EA14FB0478
:100710000C051D0540F0282B392B4A2B5B2BEA18C2
:10072000FB080C091D09B695A79597958795EE0CC2
:10073000FF1C001F111F6F5F7F4F6F31710531F775
:10074000DA01C9018F779070A070B0708034910584
:10075000A105B10561F427FD0AC0E114F10401050A
:10076000110529F0205C3F4F4F4F5F4F20782D87B8
:100770003E874F87588BBE01675F7F4FCB010E943A
:1007800071056896EAE00C946218A8E1B0E0EBEC21
:10079000F3E00C944A1869837A838B839C832D83BE
:1007A0003E834F83588789E0E82EF12CEC0EFD1E26
:1007B000CE010196B7010E9446068E010F5E1F4FC3
:1007C000CE010596B8010E9446068985823040F028
:1007D0008989823028F0C701B8010E94BE0601C095
:1007E0008FEF6896E6E00C946618A8E1B0E0EBEFB6
:1007F000F3E00C944A1869837A838B839C832D835E
:100800003E834F83588789E0E82EF12CEC0EFD1EC5
:10081000CE010196B7010E9446068E010F5E1F4F62
:10082000CE010596B8010E9446068985823040F0C7
:100830008989823028F0C701B8010E94BE0601C034
:100840008FEF6896E6E00C946618A8E1B0E0EBE262
:10085000F4E00C944A1869837A838B839C832D83FC
:100860003E834F83588789E0E82EF12CEC0EFD1E65
:10087000CE010196B7010E9446068E010F5E1F4F02
:10088000CE010596B8010E9446068985823040F067
:100890008989823028F0C701B8010E94BE0601C0D4
:1008A00081E06896E6E00C946618ACE0B0E0EBE519
:1008B000F4E00C944E1869837A838B839C83CE0179
:1008C0000196BE016B5F7F4F0E9446068D8182308C
:1008D00061F1823050F1843021F48E81882351F10E
:1008E0002EC02F81388537FD20C06E812F31310514
:1008F0001CF06623F9F023C08EE190E0821B930B7D
:1009000029853A854B855C8504C056954795379572
:1009100027958A95D2F76623B1F05095409530958A
:1009200021953F4F4F4F5F4F0EC020E030E040E039
:1009300050E009C02FEF3FEF4FEF5FE704C020E02A
:1009400030E040E050E8B901CA012C96E2E00C9496
:100950006A18A8E0B0E0EFEAF4E00C9446187B01D6
:100960008C01611571058105910519F482E0898377
:1009700060C083E089838EE1C82ED12CDC82CB82DB
:10098000ED82FE820F831887C801B7010E942205FD
:10099000FC013197F7FF3BC0222733272E1B3F0B6B
:1009A00057016801022E04C0D694C794B794A79447
:1009B0000A94D2F740E050E060E070E081E090E01F
:1009C000A0E0B0E004C0880F991FAA1FBB1F2A95A2
:1009D000D2F70197A109B1098E219F21A023B1234C
:1009E0000097A105B10521F041E050E060E070E022
:1009F0004A295B296C297D294D835E836F83788723
:100A00008EE190E08E1B9F0B9C838B8312C03097EE
:100A100081F00E2E04C0EE0CFF1C001F111F0A9463
:100A2000D2F7ED82FE820F831887CE1ADF0ADC82AE
:100A3000CB821A82CE0101960E9471052896EAE0C7
:100A40000C946218EF92FF920F931F937B018C011D
:100A500080E0E81680E0F80681E0080780E01807EB
:100A600088F48FEFE816F1040105110531F028F044
:100A700088E090E0A0E0B0E017C080E090E0A0E067
:100A8000B0E012C080E0E81680E0F80680E00807D9
:100A900081E0180728F088E190E0A0E0B0E004C011
:100AA00080E190E0A0E0B0E020E230E040E050E003
:100AB000281B390B4A0B5B0B04C016950795F7945E
:100AC000E7948A95D2F7F701E859FF4F8081281BF8
:100AD000310941095109C9011F910F91FF90EF9010
:100AE0000895DF92EF92FF920F931F93FC01E48031
:100AF000F58006811781D1808081823048F480E0C2
:100B000090E0A0E1B0E0E82AF92A0A2B1B2BA5C04F
:100B1000843009F49FC0823021F4EE24FF24870141
:100B200005C0E114F1040105110519F4E0E0F0E05D
:100B300096C0628173819FEF623879070CF05BC0C9
:100B400022E83FEF261B370B2A3131052CF020E03D
:100B500030E040E050E02AC0B801A701022E04C0F6
:100B600076956795579547950A94D2F781E090E07E
:100B7000A0E0B0E004C0880F991FAA1FBB1F2A95F0
:100B8000D2F70197A109B1098E219F21A023B1239A
:100B90000097A105B10521F081E090E0A0E0B0E070
:100BA0009A01AB01282B392B4A2B5B2BDA01C901A7
:100BB0008F779070A070B07080349105A105B10559
:100BC00039F427FF09C0205C3F4F4F4F5F4F04C0EF
:100BD000215C3F4F4F4F5F4FE0E0F0E02030A0E05E
:100BE0003A07A0E04A07A0E45A0710F0E1E0F0E07D
:100BF00079018A0127C06038710564F5FB01E1586D
:100C0000FF4FD801C7018F779070A070B07080340B
:100C10009105A105B10539F4E7FE0DC080E490E02F
:100C2000A0E0B0E004C08FE390E0A0E0B0E0E80E08
:100C3000F91E0A1F1B1F17FF05C016950795F7948D
:100C4000E794319687E016950795F794E7948A958F
:100C5000D1F705C0EE24FF248701EFEFF0E06E2FFF
:100C6000679566276795902F9F77D794DD24D79453
:100C70008E2F8695492F462B582F5D29B701CA0123
:100C80001F910F91FF90EF90DF900895FC01DB0121
:100C9000408151812281622F6F7770E0221F2227CD
:100CA000221F9381892F880F822B282F30E0991FD4
:100CB0009927991F11969C93119721153105A9F534
:100CC000411551056105710511F482E037C082E8D4
:100CD0009FEF13969C938E9312979A01AB0167E056
:100CE000220F331F441F551F6A95D1F783E08C9361
:100CF0000DC0220F331F441F551F12968D919C91DA
:100D00001397019713969C938E931297203080E04F
:100D1000380780E0480780E4580758F314962D936D
:100D20003D934D935C93179708952F3F310579F4C8
:100D3000411551056105710519F484E08C930895FE
:100D400064FF03C081E08C9312C01C9210C02F5727
:100D5000304013963C932E93129783E08C9387E058
:100D6000440F551F661F771F8A95D1F7706414963C
:100D70004D935D936D937C93179708951F93DC01BA
:100D8000FB019C91923008F447C08081823008F4C6
:100D900043C0943051F411961C91843099F58181AF
:100DA000682F70E0611B71093FC0843021F09230E0
:100DB00031F48230B9F18181882389F12DC01196F7
:100DC0001C9111978230F1F081811817D9F4129695
:100DD0002D913C911397828193818217930794F010
:100DE00028173907BCF014968D919D910D90BC91F8
:100DF000A02D2481358146815781281739074A075C
:100E00005B0718F4112341F00AC082179307A40767
:100E1000B50740F4112319F061E070E005C06FEFF1
:100E20007FEF02C060E070E0CB011F910895DF9377
:100E3000CF93CDB7DEB7A3E5B0E0E3E5F0E0808186
:100E400080648C93A3E5B0E0E3E5F0E08081886006
:100E50008C93A3E5B0E0E3E5F0E080818F7E8C9396
:100E6000A3E5B0E0E3E5F0E0808180628C93A3E548
:100E7000B0E0E3E5F0E08081887F8C93A3E5B0E00B
:100E8000E3E5F0E0808182608C93CF91DF9108955B
:100E9000DF93CF93CDB7DEB7AFE4B0E0EFE4F0E09F
:100EA00080818E7F8C93AFE4B0E0EFE4F0E080814E
:100EB0008D7F8C93AEE4B0E0EEE4F0E08081877F3C
:100EC0008C93AEE4B0E0EEE4F0E080818F7E8C9312
:100ED000AFE4B0E0EFE4F0E080818F7B8C93AFE48F
:100EE000B0E0EFE4F0E0808180688C93AEE4B0E0A5
:100EF000EEE4F0E08081887F8C93AEE4B0E0EEE435
:100F0000F0E0808182608C93CF91DF910895DF9330
:100F1000CF93CDB7DEB72C970FB6F894DEBF0FBED8
:100F2000CDBF69877A878B879C8786E00E945C08A3
:100F300019821A821B821C8289859A85AB85BC85A1
:100F400028EE33E040E050E0BC01CD010E94FD17E7
:100F5000DC01CB01892F9A2FAB2FBB278D839E837A
:100F6000AF83B8871EC0E8E5F0E08081882F90E06D
:100F7000817090700097B9F3A8E5B0E0E8E5F0E083
:100F8000808181608C9389819A81AB81BC8101963B
:100F9000A11DB11D89839A83AB83BC8386E00E9427
:100FA0005C0829813A814B815C818D819E81AF8172
:100FB000B885281739074A075B07A8F22C960FB6A1
:100FC000F894DEBF0FBECDBFCF91DF910895DF93C0
:100FD000CF93CDB7DEB72C970FB6F894DEBF0FBE18
:100FE000CDBF69877A878B879C87A3E5B0E0E3E56F
:100FF000F0E08081887F8C93A3E5B0E0E3E5F0E04A
:10100000808182608C93E2E5F0E010828AEF0E949A
:101010006A0819821A821B821C8289859A85AB858F
:10102000BC8528EE33E040E050E0BC01CD010E94D9
:10103000FD17DC01CB012AEF30E040E050E0BC01BD
:10104000CD010E941C18DA01C9018D839E83AF83F4
:10105000B8871CC0E8E5F0E080818695882F90E095
:10106000817090700097B1F3A8E5B0E0E8E5F0E09A
:10107000808182608C9389819A81AB81BC81019649
:10108000A11DB11D89839A83AB83BC8329813A81D9
:101090004B815C818D819E81AF81B885281739078E
:1010A0004A075B07B8F22C960FB6F894DEBF0FBE66
:1010B000CDBFCF91DF910895DF93CF930F92CDB73E
:1010C000DEB78983E3E5F0E0898180830F90CF91DB
:1010D000DF910895DF93CF930F92CDB7DEB7898369
:1010E000ECE5F0E0898180830F90CF91DF91089546
:1010F000DF93CF9300D0CDB7DEB79A838983898100
:101100009A8190936901809368010F900F90CF911D
:10111000DF910895DF93CF9300D0CDB7DEB79A83E8
:10112000898389819A8190936B0180936A010F90E2
:101130000F90CF91DF910895DF93CF930F92CDB7AA
:10114000DEB789838981882341F4A9E5B0E0E9E528
:10115000F0E0808181608C930AC08981823039F40B
:10116000A9E5B0E0E9E5F0E0808182608C930F9022
:10117000CF91DF910895DF93CF930F92CDB7DEB774
:1011800089838981882341F4A9E5B0E0E9E5F0E0AD
:1011900080818E7F8C930AC08981823039F4A9E5E1
:1011A000B0E0E9E5F0E080818D7F8C930F90CF91E6
:1011B000DF910895DF93CF93CDB7DEB7E2E5F0E09E
:1011C0008081CF91DF910895DF93CF93CDB7DEB7C4
:1011D000ECE4F0E080819181CF91DF910895DF937D
:1011E000CF9300D0CDB7DEB79A838983E6E4F0E0F1
:1011F00089819A81918380830F900F90CF91DF91A5
:101200000895DF93CF9300D0CDB7DEB79A8389835B
:10121000EAE4F0E089819A81918380830F900F90B6
:10122000CF91DF910895DF93CF93CDB7DEB7ECE494
:10123000F0E011821082CF91DF910895DF93CF9378
:1012400000D00F92CDB7DEB789838981282F30E097
:101250003B832A838A819B81009769F02A813B81A5
:101260002130310579F4A9E5B0E0E9E5F0E08081CD
:1012700080628C9307C0A9E5B0E0E9E5F0E08081E9
:101280008F7D8C930F900F900F90CF91DF910895E9
:10129000DF93CF93CDB7DEB7E6E4F0E080819181B4
:1012A000CF91DF910895DF93CF9300D0CDB7DEB714
:1012B0009A83898389819A8190936D0180936C01CF
:1012C0000F900F90CF91DF910895DF93CF9300D0CF
:1012D0000F92CDB7DEB789838981282F30E03B8319
:1012E0002A838A819B81009769F02A813B81213082
:1012F000310579F4AEE4B0E0EEE4F0E080818064A2
:101300008C9307C0AEE4B0E0EEE4F0E080818F7B28
:101310008C930F900F900F90CF91DF9108951F92B3
:101320000F920FB60F9211242F933F934F935F9319
:101330006F937F938F939F93AF93BF93EF93FF939D
:10134000DF93CF93CDB7DEB780916A0190916B01A7
:10135000009729F0E0916A01F0916B010995CF9116
:10136000DF91FF91EF91BF91AF919F918F917F910D
:101370006F915F914F913F912F910F900FBE0F9002
:101380001F9018951F920F920FB60F9211242F9352
:101390003F934F935F936F937F938F939F93AF93FD
:1013A000BF93EF93FF93DF93CF93CDB7DEB78091D9
:1013B000680190916901009729F0E0916801F0912E
:1013C00069010995CF91DF91FF91EF91BF91AF91A5
:1013D0009F918F917F916F915F914F913F912F914D
:1013E0000F900FBE0F901F9018951F920F920FB67F
:1013F0000F9211242F933F934F935F936F937F939B
:101400008F939F93AF93BF93EF93FF93DF93CF930C
:10141000CDB7DEB780916C0190916D01009729F0F6
:10142000E0916C01F0916D010995CF91DF91FF91F1
:10143000EF91BF91AF919F918F917F916F915F914C
:101440004F913F912F910F900FBE0F901F901895C5
:10145000DF93CF93CDB7DEB7AFE5B0E0EFE5F0E0D7
:10146000808180688C93CF91DF910895DF93CF9333
:10147000CDB7DEB7AFE5B0E0EFE5F0E080818F7784
:101480008C93CF91DF910895DF93CF9300D000D05C
:10149000CDB7DEB79A838983E981FA818081282FCD
:1014A00030E03C832B838B819C8181309105A1F0BE
:1014B0002B813C8122303105D1F08B819C810097BA
:1014C00001F584E062E040E00E942A0C84E062E0E2
:1014D00041E00E941D0D15C084E063E040E00E94E1
:1014E0002A0C84E063E041E00E941D0D0AC082E006
:1014F00062E040E00E942A0C82E062E041E00E944B
:101500001D0D0F900F900F900F90CF91DF910895C8
:10151000DF93CF9300D000D000D0CDB7DEB79A8351
:101520008983E981FA818081282F30E03E832D83F1
:101530008D819E8181309105E1F02D813E812230A7
:10154000310581F18D819E81009709F04CC0A5E5A0
:10155000B0E0E5E5F0E080818C7F8C93A5E5B0E01C
:10156000E5E5F0E09081E981FA818181892B8C9316
:101570003AC0A5E5B0E0E5E5F0E08081837F8C939B
:10158000A5E5B0E0E5E5F0E08081282FE981FA816A
:101590008181882F90E0880F991F880F991F822BD7
:1015A0008C9321C0E981FA818181282F30E03C832E
:1015B0002B838B819C818230910531F02B813C8182
:1015C0002330310549F00FC0A4E5B0E0E4E5F0E0D8
:1015D00080818F7B8C9307C0A4E5B0E0E4E5F0E068
:1015E000808180648C9326960FB6F894DEBF0FBE80
:1015F000CDBFCF91DF910895DF93CF9300D000D07E
:10160000CDB7DEB79A838983E981FA818081282F5B
:1016100030E03C832B838B819C818130910589F064
:101620002B813C8122303105A1F08B819C81009778
:10163000B9F4ABE5B0E0EBE5F0E0808180648C9339
:101640000FC0ABE5B0E0EBE5F0E0808180688C9303
:1016500007C0ABE5B0E0EBE5F0E0808180628C9301
:101660000F900F900F900F90CF91DF910895DF931F
:10167000CF9300D000D0CDB7DEB79A838983E981BC
:10168000FA818081282F30E03C832B838B819C81E1
:101690008130910589F02B813C8122303105A1F008
:1016A0008B819C810097B9F4ABE5B0E0EBE5F0E00D
:1016B00080818F7B8C930FC0ABE5B0E0EBE5F0E071
:1016C00080818F778C9307C0ABE5B0E0EBE5F0E06D
:1016D00080818F7D8C930F900F900F900F90CF9102
:1016E000DF910895DF93CF9300D000D0CDB7DEB760
:1016F0009A8389837C836B83E981FA818081882F37
:1017000090E0880F991FFC01E259FE4F8B819C816C
:10171000918380830F900F900F900F90CF91DF9166
:1017200008951F920F920FB60F9211242F933F939B
:101730004F935F936F937F938F939F93AF93BF93D9
:10174000EF93FF93DF93CF93CDB7DEB780916E0118
:1017500090916F01009729F0E0916E01F0916F0177
:101760000995CF91DF91FF91EF91BF91AF919F913B
:101770008F917F916F915F914F913F912F910F903A
:101780000FBE0F901F9018951F920F920FB60F92D9
:1017900011242F933F934F935F936F937F938F9376
:1017A0009F93AF93BF93EF93FF93DF93CF93CDB707
:1017B000DEB78091700190917101009729F0E0915E
:1017C0007001F09171010995CF91DF91FF91EF9137
:1017D000BF91AF919F918F917F916F915F914F9149
:1017E0003F912F910F900FBE0F901F9018951F9251
:1017F0000F920FB60F9211242F933F934F935F9345
:101800006F937F938F939F93AF93BF93EF93FF93C8
:10181000DF93CF93CDB7DEB78091720190917301C2
:10182000009729F0E0917201F09173010995CF9131
:10183000DF91FF91EF91BF91AF919F918F917F9138
:101840006F915F914F913F912F910F900FBE0F902D
:101850001F901895DF93CF9300D000D00F92CDB793
:10186000DEB789836A834B838981282F30E03D83EB
:101870002C838C819D818230910509F448C02C8194
:101880003D812330310534F48C819D818130910577
:1018900071F0CBC02C813D812330310509F467C044
:1018A0008C819D818430910509F491C0BEC08B81EB
:1018B0008130A1F4AAE3B0E0EAE3F0E08081482FB0
:1018C0008A81282F30E081E090E0022E02C0880F4C
:1018D000991F0A94E2F7842B8C93A7C08B818823ED
:1018E00009F0A3C0AAE3B0E0EAE3F0E08081482F6A
:1018F0008A81282F30E081E090E0022E02C0880F1C
:10190000991F0A94E2F7809584238C938EC08B8173
:101910008130A1F4A7E3B0E0E7E3F0E08081482F55
:101920008A81282F30E081E090E0022E02C0880FEB
:10193000991F0A94E2F7842B8C9377C08B818823BC
:1019400009F073C0A7E3B0E0E7E3F0E08081482F3F
:101950008A81282F30E081E090E0022E02C0880FBB
:10196000991F0A94E2F7809584238C935EC08B8143
:101970008130A1F4A4E3B0E0E4E3F0E08081482FFB
:101980008A81282F30E081E090E0022E02C0880F8B
:10199000991F0A94E2F7842B8C9347C08B8188238C
:1019A00009F043C0A4E3B0E0E4E3F0E08081482F15
:1019B0008A81282F30E081E090E0022E02C0880F5B
:1019C000991F0A94E2F7809584238C932EC08B8113
:1019D0008130A1F4A1E3B0E0E1E3F0E08081482FA1
:1019E0008A81282F30E081E090E0022E02C0880F2B
:1019F000991F0A94E2F7842B8C9317C08B8188235C
:101A0000A1F4A1E3B0E0E1E3F0E08081482F8A8116
:101A1000282F30E081E090E0022E02C0880F991F4D
:101A20000A94E2F7809584238C930F900F900F9087
:101A30000F900F90CF91DF910895DF93CF93CDB7A3
:101A4000DEB72D970FB6F894DEBF0FBECDBF8983EA
:101A50006A834B838981282F30E03D872C878C85D2
:101A60009D858230910509F450C02C853D85233039
:101A7000310534F48C859D858130910571F0ECC081
:101A80002C853D852330310509F477C08C859D85F3
:101A90008430910509F4A9C0DFC08B81282F30E084
:101AA0003B872A878A859B85009731F02A853B856D
:101AB00021303105B1F0D0C0ABE3B0E0EBE3F0E0B2
:101AC0008081482F8A81282F30E081E090E0022E2B
:101AD00002C0880F991F0A94E2F7809584238C93A3
:101AE000BBC0ABE3B0E0EBE3F0E08081482F8A813C
:101AF000282F30E081E090E0022E02C0880F991F6D
:101B00000A94E2F7842B8C93A7C08B81282F30E0B6
:101B10003987288788859985009731F02885398508
:101B200021303105B1F098C0A8E3B0E0E8E3F0E07F
:101B30008081482F8A81282F30E081E090E0022EBA
:101B400002C0880F991F0A94E2F7809584238C9332
:101B500083C0A8E3B0E0E8E3F0E08081482F8A8109
:101B6000282F30E081E090E0022E02C0880F991FFC
:101B70000A94E2F7842B8C936FC08B81282F30E07E
:101B80003F832E838E819F81009731F02E813F818C
:101B900021303105B1F060C0A5E3B0E0E5E3F0E04D
:101BA0008081482F8A81282F30E081E090E0022E4A
:101BB00002C0880F991F0A94E2F7809584238C93C2
:101BC0004BC0A5E3B0E0E5E3F0E08081482F8A81D7
:101BD000282F30E081E090E0022E02C0880F991F8C
:101BE0000A94E2F7842B8C9337C08B81282F30E046
:101BF0003D832C838C819D81009731F02C813D8128
:101C000021303105B1F028C0A2E3B0E0E2E3F0E01A
:101C10008081482F8A81282F30E081E090E0022ED9
:101C200002C0880F991F0A94E2F7809584238C9351
:101C300013C0A2E3B0E0E2E3F0E08081482F8A81A4
:101C4000282F30E081E090E0022E02C0880F991F1B
:101C50000A94E2F7842B8C932D960FB6F894DEBF8E
:101C60000FBECDBFCF91DF910895DF93CF9300D00A
:101C700000D00F92CDB7DEB78A836B838A81282F7D
:101C800030E03D832C834C815D814230510541F130
:101C90008C819D818330910534F42C813D812130EC
:101CA000310561F052C04C815D814330510551F1E5
:101CB0008C819D8184309105B9F147C0E9E3F0E062
:101CC0008081282F30E08B81882F90E0A90102C00D
:101CD000559547958A95E2F7CA018170898335C089
:101CE000E6E3F0E08081282F30E08B81882F90E0C0
:101CF000A90102C0559547958A95E2F7CA018170FE
:101D0000898323C0E3E3F0E08081282F30E08B81DA
:101D1000882F90E0A90102C0559547958A95E2F772
:101D2000CA018170898311C0E0E3F0E08081282F2F
:101D300030E08B81882F90E0A90102C0559547952E
:101D40008A95E2F7CA018170898389810F900F908B
:101D50000F900F900F90CF91DF910895DF93CF9365
:101D600000D000D0CDB7DEB789836A838981282F60
:101D700030E03C832B838B819C818230910551F133
:101D80002B813C812330310534F48B819C8181305F
:101D9000910561F05AC02B813C812330310571F1EE
:101DA0008B819C8184309105E9F14FC0ABE3B0E0B9
:101DB000EBE3F0E08081482F8A81282F30E081E03A
:101DC00090E0022E02C0880F991F0A94E2F7842740
:101DD0008C933BC0A8E3B0E0E8E3F0E08081482FBB
:101DE0008A81282F30E081E090E0022E02C0880F27
:101DF000991F0A94E2F784278C9327C0A5E3B0E0EB
:101E0000E5E3F0E08081482F8A81282F30E081E0EF
:101E100090E0022E02C0880F991F0A94E2F78427EF
:101E20008C9313C0A2E3B0E0E2E3F0E08081482F9E
:101E30008A81282F30E081E090E0022E02C0880FD6
:101E4000991F0A94E2F784278C930F900F900F90BC
:101E50000F90CF91DF910895DF93CF93CDB7DEB789
:101E60002C970FB6F894DEBF0FBECDBF89836A836F
:101E70008981282F30E03C872B878B859C85823099
:101E8000910579F12B853C852330310534F48B8520
:101E90009C858130910569F068C02B853C85233095
:101EA0003105B1F18B859C858430910509F447C0DB
:101EB0005CC08A81282F30E03A87298789859A85F6
:101EC000009759F029853A852130310509F04DC038
:101ED000EAE3F0E08FEF808348C0EAE3F0E01082AD
:101EE00044C08A81282F30E038872F838F819885DE
:101EF000009751F02F81388521303105B1F5E7E3A6
:101F0000F0E08FEF808331C0E7E3F0E010822DC076
:101F10008A81282F30E03E832D838D819E8100971A
:101F200051F02D813E8121303105F9F4E4E3F0E0F8
:101F30008FEF80831AC0E4E3F0E0108216C08A813C
:101F4000282F30E03C832B838B819C81009751F0BC
:101F50002B813C812130310541F4E1E3F0E08FEF4A
:101F6000808303C0E1E3F0E010822C960FB6F89472
:101F7000DEBF0FBECDBFCF91DF910895DF93CF932A
:101F800000D000D0CDB7DEB789836A838981282F3E
:101F900030E03C832B838B819C8182309105D9F08A
:101FA0002B813C812330310534F48B819C8181303D
:101FB000910561F01EC02B813C812330310581F0F9
:101FC0008B819C818430910581F013C0EAE3F0E0BD
:101FD0008A8180830EC0E7E3F0E08A81808309C0B4
:101FE000E4E3F0E08A81808304C0E1E3F0E08A81E9
:101FF00080830F900F900F900F90CF91DF910895F5
:10200000DF93CF9300D000D0CDB7DEB789836A834A
:102010008981282F30E03C832B838B819C81823007
:102020009105D9F02B813C812330310534F48B812B
:102030009C818130910561F01EC02B813C81233051
:10204000310581F08B819C818430910581F013C032
:10205000EBE3F0E08A8180830EC0E8E3F0E08A8160
:10206000808309C0E5E3F0E08A81808304C0E2E375
:10207000F0E08A8180830F900F900F900F90CF91A6
:10208000DF910895DF93CF9300D000D0CDB7DEB7B6
:102090008A838A81282F30E03C832B838B819C812B
:1020A00082309105D9F02B813C812330310534F405
:1020B0008B819C818130910561F01EC02B813C8118
:1020C0002330310581F08B819C818430910581F032
:1020D00013C0EBE3F0E0808189830EC0E8E3F0E019
:1020E0008081898309C0E5E3F0E08081898304C0B1
:1020F000E2E3F0E08081898389810F900F900F9057
:102100000F90CF91DF910895DF93CF93CDB7DEB7D6
:10211000A6E2B0E0E6E2F0E0808180688C93A6E27F
:10212000B0E0E6E2F0E0808188608C93A7E2B0E066
:10213000E7E2F0E080818F738C93A7E2B0E0E7E202
:10214000F0E080818C93A7E2B0E0E7E2F0E08081EC
:1021500080628C93A6E2B0E0E6E2F0E08081887FC6
:102160008C93A6E2B0E0E6E2F0E0808187608C9399
:10217000CF91DF910895DF93CF9300D00F92CDB729
:10218000DEB789838981282F30E03B832A838A81C7
:102190009B81009731F02A813B812130310549F044
:1021A0000FC0A6E2B0E0E6E2F0E08081877F8C938A
:1021B00007C0A6E2B0E0E6E2F0E0808188608C93A0
:1021C0000F900F900F90CF91DF910895DF93CF93F1
:1021D00000D0CDB7DEB78A83A7E2B0E0E7E2F0E057
:1021E0008081807E8C93A7E2B0E0E7E2F0E090810E
:1021F0008A81892B8C93A6E2B0E0E6E2F0E0808150
:1022000080648C93E6E2F0E0808182958F70882F65
:1022100090E0817090700097A9F3A6E2B0E0E6E24A
:10222000F0E0808180618C93E5E2F0E08081898339
:1022300089810F900F90CF91DF910895DF93CF9315
:1022400000D00F92CDB7DEB789837B836A83A7E284
:10225000B0E0E7E2F0E08081807E8C93A7E2B0E01E
:10226000E7E2F0E090818981892B8C938A819B81C0
:102270009093750180937401A6E2B0E0E6E2F0E08D
:10228000808180648C930F900F900F90CF91DF919D
:1022900008951F920F920FB60F9211242F933F9320
:1022A0004F935F936F937F938F939F93AF93BF935E
:1022B000EF93FF93DF93CF93CDB7DEB780E00E941B
:1022C000BB10E5E2F0E0808180937B018091740196
:1022D00090917501009729F0E0917401F0917501DA
:1022E000099581E00E94BB10CF91DF91FF91EF91A2
:1022F000BF91AF919F918F917F916F915F914F911E
:102300003F912F910F900FBE0F901F901895DF9364
:10231000CF93CDB7DEB784E066E040E00E942A0CA0
:1023200083E065E041E00E942A0C81E00E941E09E2
:1023300086ED92E10E9453090E94280A0E944807F4
:10234000CF91DF910895DF93CF93CDB7DEB7A097FC
:102350000FB6F894DEBF0FBECDBF98A38F8F1E8E31
:102360001D8E10927A0181E00E941E0981E00E9478
:10237000650983E065E041E00E941D0D80E090E08A
:10238000A0E2B1E48D8B9E8BAF8BB88F6D897E8977
:102390008F89988D2BEA3AEA4AE250E40E941F02A4
:1023A000DC01CB01898B9A8BAB8BBC8B69897A89D9
:1023B0008B899C8920E030E040E85FE30E9425049F
:1023C00088231CF481E0888B91C069897A898B8984
:1023D0009C8920E030E04FE753E40E94C5031816C3
:1023E0000CF07BC06D897E898F89988D20E030E06C
:1023F0004AE754E40E941903DC01CB018C879D87D6
:10240000AE87BF876C857D858E859F8520E030E017
:102410004AEF54E40E941F02DC01CB0188879987B0
:10242000AA87BB87688579858A859B8520E030E00F
:1024300040E85FE30E94250488232CF481E090E0CB
:102440009F838E833FC0688579858A859B8520E040
:102450003FEF4FE757E40E94C50318164CF56C8513
:102460007D858E859F8520E030E040E251E40E942A
:102470001F02DC01CB01BC01CD010E944900DC013F
:10248000CB019F838E830FC088EC90E09D838C836B
:102490008C819D810197F1F79D838C838E819F8133
:1024A00001979F838E838E819F81009769F724C057
:1024B000688579858A859B850E944900DC01CB016E
:1024C0009F838E838E819F819B838A838A819B8158
:1024D0000197F1F79B838A830FC069897A898B8979
:1024E0009C890E944900DC01CB01888B8889898303
:1024F00089818A95F1F7898383E065E040E00E9455
:102500001D0D80917A018230E1F7209178013091A0
:1025100079018091760190917701A901481B590BAF
:10252000CA0101979E8F8D8F8D8D9E8DCC01A0E06D
:10253000B0E0BC01CD010E94A904DC01CB01BC01CB
:10254000CD0123E333E349E652E40E941903DC01A1
:10255000CB01BC01CD010E947518DC01CB01BC018F
:10256000CD0120E030E040E85FE30E94C101DC01E2
:10257000CB01BC01CD010E944900DC01CB01898F58
:102580009A8FAB8FBC8FEF8DF8A1898D9A8DAB8D13
:10259000BC8D80839183A283B383A0960FB6F894F9
:1025A000DEBF0FBECDBFCF91DF910895DF93CF93F4
:1025B00000D0CDB7DEB780917A01282F30E03A8382
:1025C000298389819A81009731F029813A812130CC
:1025D000310559F013C00E94480990937701809308
:1025E000760180E00E94650909C00E944809909325
:1025F00079018093780180E00E94650980917A01D9
:102600008F5F80937A010F900F90CF91DF910895A3
:10261000DF93CF9300D0CDB7DEB79A838983E9816A
:10262000FA818181E981FA819081692F41E00E94DC
:102630002A0CE981FA818381E981FA819281692FEB
:1026400041E00E942A0C0F900F90CF91DF910895E6
:10265000DF93CF9300D0CDB7DEB79A838983E9812A
:10266000FA818181E981FA819081692F41E00E949C
:102670001D0DE981FA818381E981FA819281692FB7
:1026800040E00E941D0D0F900F90CF91DF910895B3
:10269000DF93CF9300D0CDB7DEB79A838983E981EA
:1026A000FA818181E981FA819081692F40E00E945D
:1026B0001D0DE981FA818381E981FA819281692F77
:1026C00041E00E941D0D0F900F90CF91DF91089572
:1026D000DF93CF9300D0CDB7DEB79A838983E981AA
:1026E000FA818181E981FA819081692F40E00E941D
:1026F0001D0DE981FA818381E981FA819281692F37
:1027000040E00E941D0D0F900F90CF91DF91089532
:10271000DF93CF9300D0CDB7DEB79A838983E98169
:10272000FA818081E981FA819181692F41E00E94DB
:102730002A0C0F900F90CF91DF910895DF93CF93E4
:1027400000D0CDB7DEB79A838983E981FA81808191
:10275000E981FA819181692F41E00E941D0D0F905E
:102760000F90CF91DF910895DF93CF9300D0CDB735
:10277000DEB79A838983E981FA818081E981FA81D0
:102780009181692F40E00E941D0D0F900F90CF9115
:10279000DF910895DF93CF9300D0CDB7DEB79A8352
:1027A0008983E981FA818081E981FA819181692FA8
:1027B0000E94AE0E0F900F90CF91DF910895DF939E
:1027C000CF93CDB7DEB72E970FB6F894DEBF0FBE0E
:1027D000CDBF81E06FEF0E94BE0F82E060E041E07C
:1027E0000E942A0C82E062E041E00E942A0C82E012
:1027F00061E041E00E942A0C80E090E0A0E2B2E4B7
:102800008B879C87AD87BE876B857C858D859E85F4
:1028100020E030E04AEF54E40E941F02DC01CB01CB
:102820008F839887A987BA876F81788589859A85EC
:1028300020E030E040E85FE30E94250488232CF488
:1028400081E090E09E838D833FC06F81788589858C
:102850009A8520E03FEF4FE757E40E94C503181622
:102860004CF56B857C858D859E8520E030E040E2CF
:1028700051E40E941F02DC01CB01BC01CD010E948A
:102880004900DC01CB019E838D830FC088EC90E072
:102890009C838B838B819C810197F1F79C838B8335
:1028A0008D819E8101979E838D838D819E8100976E
:1028B00069F714C06F81788589859A850E944900DF
:1028C000DC01CB019E838D838D819E819A838983D8
:1028D00089819A810197F1F79A83898388E30E941D
:1028E00080148FE00E94801481E00E9480142E9654
:1028F0000FB6F894DEBF0FBECDBFCF91DF91089524
:10290000DF93CF93CDB7DEB72F970FB6F894DEBF26
:102910000FBECDBF8F8782E060E040E00E941D0DBA
:1029200082E061E040E00E941D0D81E06F850E9421
:10293000001082E062E040E00E941D0D82E062E053
:1029400041E00E941D0D80E090E0A0E0B0E48B87A4
:102950009C87AD87BE876B857C858D859E8520E0B5
:1029600030E04AEF54E40E941F02DC01CB018F8368
:102970009887A987BA876F81788589859A8520E0AD
:1029800030E040E85FE30E94250488232CF481E0D6
:1029900090E09E838D833FC06F81788589859A857D
:1029A00020E03FEF4FE757E40E94C50318164CF5AF
:1029B0006B857C858D859E8520E030E040E251E48A
:1029C0000E941F02DC01CB01BC01CD010E94490025
:1029D000DC01CB019E838D830FC088EC90E09C834B
:1029E0008B838B819C810197F1F79C838B838D81F5
:1029F0009E8101979E838D838D819E81009769F7CB
:102A000014C06F81788589859A850E944900DC0110
:102A1000CB019E838D838D819E819A838983898159
:102A20009A810197F1F79A83898382E062E040E01E
:102A30000E941D0D2F960FB6F894DEBF0FBECDBFBE
:102A4000CF91DF910895DF93CF93CDB7DEB72F9766
:102A50000FB6F894DEBF0FBECDBF8F8782E060E077
:102A600041E00E941D0D82E061E040E00E941D0DEA
:102A700081E06F850E94001082E062E040E00E94E9
:102A80001D0D82E062E041E00E941D0D80E090E0BB
:102A9000A0E0B0E48B879C87AD87BE876B857C8583
:102AA0008D859E8520E030E04AEF54E40E941F02AD
:102AB000DC01CB018F839887A987BA876F817885DE
:102AC00089859A8520E030E040E85FE30E94250494
:102AD00088232CF481E090E09E838D833FC06F813A
:102AE000788589859A8520E03FEF4FE757E40E947B
:102AF000C50318164CF56B857C858D859E8520E079
:102B000030E040E251E40E941F02DC01CB01BC0135
:102B1000CD010E944900DC01CB019E838D830FC053
:102B200088EC90E09C838B838B819C810197F1F7EB
:102B30009C838B838D819E8101979E838D838D8164
:102B40009E81009769F714C06F81788589859A8581
:102B50000E944900DC01CB019E838D838D819E8183
:102B60009A83898389819A810197F1F79A8389836E
:102B700082E062E040E00E941D0D2F960FB6F894AF
:102B8000DEBF0FBECDBFCF91DF910895DF93CF930E
:102B9000CDB7DEB781E00E948014CF91DF91089518
:102BA000DF93CF9300D00F92CDB7DEB78A836B83CC
:102BB00019828A81882319F48B81898306C08A81CE
:102BC000813019F48B81805C898389818068898355
:102BD00089810E9480140F900F900F90CF91DF9108
:102BE0000895DF93CF9300D00F92CDB7DEB79B83CC
:102BF0008A8319820FC08981282F30E08A819B81C6
:102C0000FC01E20FF31F908189818F5F8983892FF7
:102C10000E9423158981282F30E08A819B81FC0145
:102C2000E20FF31F8081882331F70F900F900F90F0
:102C3000CF91DF9108950F931F93DF93CF93CDB77B
:102C4000DEB72F970FB6F894DEBF0FBECDBF6C87EF
:102C50007D878E879F8719822FC08981082F112732
:102C600007FD10958C859D85AE85BF852AE030E0F7
:102C700040E050E0BC01CD010E941C18DC01CB01FA
:102C8000282FCE010296FC01E00FF11F20838981DD
:102C90008F5F89838C859D85AE85BF852AE030E076
:102CA00040E050E0BC01CD010E941C18DA01C901CE
:102CB0008C879D87AE87BF878C859D85AE85BF85B8
:102CC0000097A105B10549F689818150898313C018
:102CD0008981282F332727FD3095CE010296FC01EC
:102CE000E20FF31F8081982F905D89818150898345
:102CF000892F0E9423158981882354F72F960FB6B8
:102D0000F894DEBF0FBECDBFCF91DF911F910F9121
:102D10000895DF93CF93CDB7DEB727970FB6F8941A
:102D2000DEBF0FBECDBF9C838B836D834E832F830D
:102D300019828D81882F90E0880F991F880F991F25
:102D4000880F991F898389818064898389810E9482
:102D500080141A820EC08A81282F30E08B819C81DA
:102D6000FC01E20FF31F80810E9423158A818F5F8F
:102D70008A838A81883078F38E816F810E94D01592
:102D80008D810E94231527960FB6F894DEBF0FBEE3
:102D9000CDBFCF91DF910895DF93CF9300D0CDB712
:102DA000DEB79A838983E981FA818081E981FA819A
:102DB0009181692F40E00E942A0C0F900F90CF91D3
:102DC000DF910895DF93CF9300D000D0CDB7DEB769
:102DD0009A8389837C836B83E981FA818081E9818D
:102DE000FA819181692F0E94350EEB81FC818083ED
:102DF0000F900F900F900F90CF91DF910895DF9378
:102E0000CF9300D0CDB7DEB79A838983E981FA8169
:102E10008081E981FA819181692F40E00E942A0C2A
:102E20000F900F90CF91DF910895DF93CF9300D053
:102E3000CDB7DEB79A838983E981FA818081E98100
:102E4000FA819181692F0E94350E0F900F90CF91DA
:102E5000DF910895DF93CF93CDB7DEB76B970FB6B1
:102E6000F894DEBF0FBECDBF81E08F87188A198A24
:102E70001A8A1B8A0E9487110E94280A0E94DF1367
:102E800082E08C8B84E08D8B83E08E8B84E08F8B53
:102E9000188E84E0898F81E08A8F84E08B8FCE0149
:102EA00044960E940813CE0148960E940813CE0152
:102EB00044960E944813CE0148960E9448130E94EF
:102EC000170782E063E041E00E942A0C89E70E9434
:102ED0006A0888899989AA89BB8983339105A105E4
:102EE000B10508F081C0CE0140960E94A3118889E7
:102EF0009989AA89BB89BC01CD010E941B1680E07B
:102F000090E0A8ECB2E48B879C87AD87BE876B8589
:102F10007C858D859E8520E030E04AEF54E40E9458
:102F20001F02DC01CB018F839887A987BA876F8145
:102F3000788589859A8520E030E040E85FE30E944B
:102F4000250488232CF481E090E09E838D833FC08C
:102F50006F81788589859A8520E03FEF4FE757E4B8
:102F60000E94C50318164CF56B857C858D859E8562
:102F700020E030E040E251E40E941F02DC01CB017E
:102F8000BC01CD010E944900DC01CB019E838D83F1
:102F90000FC088EC90E09C838B838B819C81019790
:102FA000F1F79C838B838D819E8101979E838D8316
:102FB0008D819E81009769F714C06F81788589851E
:102FC0009A850E944900DC01CB019E838D838D810F
:102FD0009E819A83898389819A810197F1F79A83E7
:102FE00089830E94C61575CFCE0144960E9468134E
:102FF000CE0148960E9468136CCF629FD001739FE8
:10300000F001829FE00DF11D649FE00DF11D929F84
:10301000F00D839FF00D749FF00D659FF00D9927C3
:10302000729FB00DE11DF91F639FB00DE11DF91FE7
:10303000BD01CF0111240895A1E21A2EAA1BBB1BCA
:10304000FD010DC0AA1FBB1FEE1FFF1FA217B30774
:10305000E407F50720F0A21BB30BE40BF50B661F8A
:10306000771F881F991F1A9469F76095709580954E
:1030700090959B01AC01BD01CF0108952F923F9225
:103080004F925F926F927F928F929F92AF92BF9278
:10309000CF92DF92EF92FF920F931F93CF93DF9324
:1030A000CDB7DEB7CA1BDB0B0FB6F894DEBF0FBE81
:1030B000CDBF09942A88398848885F846E847D84CE
:1030C0008C849B84AA84B984C884DF80EE80FD80D0
:1030D0000C811B81AA81B981CE0FD11D0FB6F89446
:1030E000DEBF0FBECDBFED0108953BD080F09F370E
:1030F00040F491110EF44DC060E070E080E89FE371
:10310000089526F01B16611D711D811D01C01BC095
:10311000882371F4772321F09850872B762F07C0EE
:10312000662311F499270DC09051862B70E060E062
:103130002AF09A95660F771F881FDAF7880F969501
:10314000879597F908959F3F31F0915020F4879526
:1031500077956795B795880F911D9695879597F9FF
:10316000089525D0A0F0BEE7B91788F4BB279F3893
:1031700060F41616B11D672F782F8827985FF7CF58
:10318000869577956795B11D93959639C8F30895FF
:10319000E894BB2766277727CB0197F9089557FD59
:1031A0009058440F551F59F05F3F71F04795880FB5
:1031B00097FB991F61F09F3F79F08795089512164C
:1031C00013061406551FF2CF4695F1DF08C01616F8
:1031D00017061806991FF1CF8695710561050894A9
:0631E0000895F894FFCFF2
:1031E60000000000000000000001020203030303C8
:1031F6000404040404040404050505050505050581
:103206000505050505050505060606060606060660
:103216000606060606060606060606060606060648
:103226000606060606060606070707070707070730
:103236000707070707070707070707070707070718
:103246000707070707070707070707070707070708
:1032560007070707070707070707070707070707F8
:1032660007070707070707070808080808080808E0
:1032760008080808080808080808080808080808C8
:1032860008080808080808080808080808080808B8
:1032960008080808080808080808080808080808A8
:1032A6000808080808080808080808080808080898
:1032B6000808080808080808080808080808080888
:1032C6000808080808080808080808080808080878
:1032D6000808080808080808080808080808080868
:0832E6000808080808080808A0
:00000001FF
